{
    "_format": "hh-sol-artifact-1",
    "contractName": "SQTRedeem",
    "sourceName": "contracts/SQTRedeem.sol",
    "abi": [
        {
            "anonymous": false,
            "inputs": [
                {
                    "indexed": false,
                    "internalType": "uint8",
                    "name": "version",
                    "type": "uint8"
                }
            ],
            "name": "Initialized",
            "type": "event"
        },
        {
            "anonymous": false,
            "inputs": [
                {
                    "indexed": true,
                    "internalType": "address",
                    "name": "previousOwner",
                    "type": "address"
                },
                {
                    "indexed": true,
                    "internalType": "address",
                    "name": "newOwner",
                    "type": "address"
                }
            ],
            "name": "OwnershipTransferred",
            "type": "event"
        },
        {
            "anonymous": false,
            "inputs": [
                {
                    "indexed": true,
                    "internalType": "address",
                    "name": "to",
                    "type": "address"
                },
                {
                    "indexed": true,
                    "internalType": "uint256",
                    "name": "tokenId",
                    "type": "uint256"
                },
                {
                    "indexed": false,
                    "internalType": "uint256",
                    "name": "seriesId",
                    "type": "uint256"
                },
                {
                    "indexed": false,
                    "internalType": "address",
                    "name": "nft",
                    "type": "address"
                },
                {
                    "indexed": false,
                    "internalType": "uint256",
                    "name": "sqtValue",
                    "type": "uint256"
                }
            ],
            "name": "SQTRedeemed",
            "type": "event"
        },
        {
            "inputs": [
                {
                    "internalType": "address[]",
                    "name": "_nfts",
                    "type": "address[]"
                },
                {
                    "internalType": "uint256[]",
                    "name": "_tokenIds",
                    "type": "uint256[]"
                }
            ],
            "name": "batchRedeem",
            "outputs": [],
            "stateMutability": "nonpayable",
            "type": "function"
        },
        {
            "inputs": [
                {
                    "internalType": "uint256",
                    "name": "amount",
                    "type": "uint256"
                }
            ],
            "name": "deposit",
            "outputs": [],
            "stateMutability": "nonpayable",
            "type": "function"
        },
        {
            "inputs": [
                {
                    "internalType": "address",
                    "name": "_sqtoken",
                    "type": "address"
                }
            ],
            "name": "initialize",
            "outputs": [],
            "stateMutability": "nonpayable",
            "type": "function"
        },
        {
            "inputs": [],
            "name": "owner",
            "outputs": [
                {
                    "internalType": "address",
                    "name": "",
                    "type": "address"
                }
            ],
            "stateMutability": "view",
            "type": "function"
        },
        {
            "inputs": [
                {
                    "internalType": "address",
                    "name": "nft",
                    "type": "address"
                },
                {
                    "internalType": "uint256",
                    "name": "tokenId",
                    "type": "uint256"
                }
            ],
            "name": "redeem",
            "outputs": [],
            "stateMutability": "nonpayable",
            "type": "function"
        },
        {
            "inputs": [],
            "name": "redeemable",
            "outputs": [
                {
                    "internalType": "bool",
                    "name": "",
                    "type": "bool"
                }
            ],
            "stateMutability": "view",
            "type": "function"
        },
        {
            "inputs": [
                {
                    "internalType": "address",
                    "name": "",
                    "type": "address"
                },
                {
                    "internalType": "uint256",
                    "name": "",
                    "type": "uint256"
                }
            ],
            "name": "redeemableAmount",
            "outputs": [
                {
                    "internalType": "uint256",
                    "name": "",
                    "type": "uint256"
                }
            ],
            "stateMutability": "view",
            "type": "function"
        },
        {
            "inputs": [],
            "name": "renounceOwnership",
            "outputs": [],
            "stateMutability": "nonpayable",
            "type": "function"
        },
        {
            "inputs": [
                {
                    "internalType": "bool",
                    "name": "_redeemable",
                    "type": "bool"
                }
            ],
            "name": "setRedeemable",
            "outputs": [],
            "stateMutability": "nonpayable",
            "type": "function"
        },
        {
            "inputs": [
                {
                    "internalType": "address",
                    "name": "nft",
                    "type": "address"
                },
                {
                    "internalType": "uint256",
                    "name": "seriesId",
                    "type": "uint256"
                },
                {
                    "internalType": "uint256",
                    "name": "amount",
                    "type": "uint256"
                }
            ],
            "name": "setRedeemableAmount",
            "outputs": [],
            "stateMutability": "nonpayable",
            "type": "function"
        },
        {
            "inputs": [],
            "name": "sqtoken",
            "outputs": [
                {
                    "internalType": "address",
                    "name": "",
                    "type": "address"
                }
            ],
            "stateMutability": "view",
            "type": "function"
        },
        {
            "inputs": [
                {
                    "internalType": "address",
                    "name": "newOwner",
                    "type": "address"
                }
            ],
            "name": "transferOwnership",
            "outputs": [],
            "stateMutability": "nonpayable",
            "type": "function"
        },
        {
            "inputs": [
                {
                    "internalType": "uint256",
                    "name": "amount",
                    "type": "uint256"
                }
            ],
            "name": "withdraw",
            "outputs": [],
            "stateMutability": "nonpayable",
            "type": "function"
        }
    ],
    "bytecode": "0x608060405234801561001057600080fd5b50610d26806100206000396000f3fe608060405234801561001057600080fd5b50600436106100cf5760003560e01c8063715018a61161008c578063b6b55f2511610066578063b6b55f25146101c8578063c4d66de8146101db578063ce7f1e66146101ee578063f2fde38b1461020157600080fd5b8063715018a6146101765780638da5cb5b1461017e57806390098f751461018f57600080fd5b80631e9a6950146100d45780632d7ecd11146100e95780632e1a7d4d14610112578063373bc9021461012557806338907118146101505780636200c9ff14610163575b600080fd5b6100e76100e2366004610a94565b610214565b005b6065546100fd90600160a01b900460ff1681565b60405190151581526020015b60405180910390f35b6100e7610120366004610ac0565b6105cf565b606554610138906001600160a01b031681565b6040516001600160a01b039091168152602001610109565b6100e761015e366004610ae7565b610685565b6100e7610171366004610b57565b6106ab565b6100e761074f565b6033546001600160a01b0316610138565b6101ba61019d366004610a94565b606660209081526000928352604080842090915290825290205481565b604051908152602001610109565b6100e76101d6366004610ac0565b610763565b6100e76101e9366004610bc3565b6107a8565b6100e76101fc366004610be0565b6108d5565b6100e761020f366004610bc3565b610903565b606554600160a01b900460ff1661025b5760405162461bcd60e51b815260206004820152600660248201526529a8a918181960d11b60448201526064015b60405180910390fd5b6040516301ffc9a760e01b8152631160da1560e01b600482015282906001600160a01b038216906301ffc9a790602401602060405180830381865afa1580156102a8573d6000803e3d6000fd5b505050506040513d601f19601f820116820180604052508101906102cc9190610c15565b6103015760405162461bcd60e51b815260206004820152600660248201526553515230303360d01b6044820152606401610252565b6040516331a9108f60e11b815260048101839052839033906001600160a01b03831690636352211e90602401602060405180830381865afa15801561034a573d6000803e3d6000fd5b505050506040513d601f19601f8201168201806040525081019061036e9190610c32565b6001600160a01b0316146103ad5760405162461bcd60e51b815260206004820152600660248201526553515230303560d01b6044820152606401610252565b604051631160da1560e01b8152600481018490526000906001600160a01b03831690631160da1590602401602060405180830381865afa1580156103f5573d6000803e3d6000fd5b505050506040513d601f19601f820116820180604052508101906104199190610c4f565b6001600160a01b0386166000908152606660209081526040808320848452909152902054909150806104765760405162461bcd60e51b815260206004820152600660248201526514d4548c0c0d60d21b6044820152606401610252565b604051630852cd8d60e31b8152600481018690526001600160a01b038716906342966c6890602401600060405180830381600087803b1580156104b857600080fd5b505af11580156104cc573d6000803e3d6000fd5b505060655460405163a9059cbb60e01b8152336004820152602481018590526001600160a01b03909116925063a9059cbb91506044016020604051808303816000875af1158015610521573d6000803e3d6000fd5b505050506040513d601f19601f820116820180604052508101906105459190610c15565b61057a5760405162461bcd60e51b815260206004820152600660248201526553515230303160d01b6044820152606401610252565b604080518381526001600160a01b0388166020820152908101829052859033907f767741a14109956c0997f21a44df08054928ea4e58b95b145a327b649a7cb9609060600160405180910390a3505050505050565b6105d7610979565b60655460405163a9059cbb60e01b8152336004820152602481018390526001600160a01b039091169063a9059cbb906044015b6020604051808303816000875af1158015610629573d6000803e3d6000fd5b505050506040513d601f19601f8201168201806040525081019061064d9190610c15565b6106825760405162461bcd60e51b815260206004820152600660248201526553515230303160d01b6044820152606401610252565b50565b61068d610979565b60658054911515600160a01b0260ff60a01b19909216919091179055565b8281146106e35760405162461bcd60e51b8152600401610252906020808252600490820152630473032360e41b604082015260600190565b60005b838110156107485761073685858381811061070357610703610c68565b90506020020160208101906107189190610bc3565b84848481811061072a5761072a610c68565b90506020020135610214565b8061074081610c7e565b9150506106e6565b5050505050565b610757610979565b61076160006109d3565b565b61076b610979565b6065546040516323b872dd60e01b8152336004820152306024820152604481018390526001600160a01b03909116906323b872dd9060640161060a565b600054610100900460ff16158080156107c85750600054600160ff909116105b806107e25750303b1580156107e2575060005460ff166001145b6108455760405162461bcd60e51b815260206004820152602e60248201527f496e697469616c697a61626c653a20636f6e747261637420697320616c72656160448201526d191e481a5b9a5d1a585b1a5e995960921b6064820152608401610252565b6000805460ff191660011790558015610868576000805461ff0019166101001790555b610870610a25565b606580546001600160a01b0319166001600160a01b03841617905580156108d1576000805461ff0019169055604051600181527f7f26b83ff96e1f2b6a682f133852f6798a09c465da95921460cefb38474024989060200160405180910390a15b5050565b6108dd610979565b6001600160a01b0390921660009081526066602090815260408083209383529290522055565b61090b610979565b6001600160a01b0381166109705760405162461bcd60e51b815260206004820152602660248201527f4f776e61626c653a206e6577206f776e657220697320746865207a65726f206160448201526564647265737360d01b6064820152608401610252565b610682816109d3565b6033546001600160a01b031633146107615760405162461bcd60e51b815260206004820181905260248201527f4f776e61626c653a2063616c6c6572206973206e6f7420746865206f776e65726044820152606401610252565b603380546001600160a01b038381166001600160a01b0319831681179093556040519116919082907f8be0079c531659141344cd1fd0a4f28419497f9722a3daafe3b4186f6b6457e090600090a35050565b600054610100900460ff16610a4c5760405162461bcd60e51b815260040161025290610ca5565b610761600054610100900460ff16610a765760405162461bcd60e51b815260040161025290610ca5565b610761336109d3565b6001600160a01b038116811461068257600080fd5b60008060408385031215610aa757600080fd5b8235610ab281610a7f565b946020939093013593505050565b600060208284031215610ad257600080fd5b5035919050565b801515811461068257600080fd5b600060208284031215610af957600080fd5b8135610b0481610ad9565b9392505050565b60008083601f840112610b1d57600080fd5b50813567ffffffffffffffff811115610b3557600080fd5b6020830191508360208260051b8501011115610b5057600080fd5b9250929050565b60008060008060408587031215610b6d57600080fd5b843567ffffffffffffffff80821115610b8557600080fd5b610b9188838901610b0b565b90965094506020870135915080821115610baa57600080fd5b50610bb787828801610b0b565b95989497509550505050565b600060208284031215610bd557600080fd5b8135610b0481610a7f565b600080600060608486031215610bf557600080fd5b8335610c0081610a7f565b95602085013595506040909401359392505050565b600060208284031215610c2757600080fd5b8151610b0481610ad9565b600060208284031215610c4457600080fd5b8151610b0481610a7f565b600060208284031215610c6157600080fd5b5051919050565b634e487b7160e01b600052603260045260246000fd5b600060018201610c9e57634e487b7160e01b600052601160045260246000fd5b5060010190565b6020808252602b908201527f496e697469616c697a61626c653a20636f6e7472616374206973206e6f74206960408201526a6e697469616c697a696e6760a81b60608201526080019056fea26469706673582212200a158171c5dff868b899c1b59200db24d178befd940e6fb961ee0ab96c8e882e64736f6c634300080f0033",
    "linkReferences": {},
    "deployedLinkReferences": {}
}